{
  "contractName": "SmartTokens",
  "abi": [
    {
      "inputs": [],
      "stateMutability": "nonpayable",
      "type": "constructor"
    },
    {
      "anonymous": false,
      "inputs": [
        {
          "indexed": true,
          "internalType": "address",
          "name": "account",
          "type": "address"
        },
        {
          "indexed": true,
          "internalType": "address",
          "name": "operator",
          "type": "address"
        },
        {
          "indexed": false,
          "internalType": "bool",
          "name": "approved",
          "type": "bool"
        }
      ],
      "name": "ApprovalForAll",
      "type": "event"
    },
    {
      "anonymous": false,
      "inputs": [
        {
          "indexed": true,
          "internalType": "uint256",
          "name": "tokenId",
          "type": "uint256"
        },
        {
          "indexed": true,
          "internalType": "address",
          "name": "account",
          "type": "address"
        },
        {
          "indexed": false,
          "internalType": "uint256",
          "name": "amount",
          "type": "uint256"
        },
        {
          "indexed": false,
          "internalType": "string",
          "name": "projectName",
          "type": "string"
        },
        {
          "indexed": false,
          "internalType": "uint256",
          "name": "startDate",
          "type": "uint256"
        },
        {
          "indexed": false,
          "internalType": "uint256",
          "name": "endDate",
          "type": "uint256"
        },
        {
          "indexed": false,
          "internalType": "string",
          "name": "ipfsHash",
          "type": "string"
        }
      ],
      "name": "MintEvent",
      "type": "event"
    },
    {
      "anonymous": false,
      "inputs": [
        {
          "indexed": true,
          "internalType": "address",
          "name": "previousOwner",
          "type": "address"
        },
        {
          "indexed": true,
          "internalType": "address",
          "name": "newOwner",
          "type": "address"
        }
      ],
      "name": "OwnershipTransferred",
      "type": "event"
    },
    {
      "anonymous": false,
      "inputs": [
        {
          "indexed": true,
          "internalType": "address",
          "name": "operator",
          "type": "address"
        },
        {
          "indexed": true,
          "internalType": "address",
          "name": "from",
          "type": "address"
        },
        {
          "indexed": true,
          "internalType": "address",
          "name": "to",
          "type": "address"
        },
        {
          "indexed": false,
          "internalType": "uint256[]",
          "name": "ids",
          "type": "uint256[]"
        },
        {
          "indexed": false,
          "internalType": "uint256[]",
          "name": "values",
          "type": "uint256[]"
        }
      ],
      "name": "TransferBatch",
      "type": "event"
    },
    {
      "anonymous": false,
      "inputs": [
        {
          "indexed": true,
          "internalType": "address",
          "name": "operator",
          "type": "address"
        },
        {
          "indexed": true,
          "internalType": "address",
          "name": "from",
          "type": "address"
        },
        {
          "indexed": true,
          "internalType": "address",
          "name": "to",
          "type": "address"
        },
        {
          "indexed": false,
          "internalType": "uint256",
          "name": "id",
          "type": "uint256"
        },
        {
          "indexed": false,
          "internalType": "uint256",
          "name": "value",
          "type": "uint256"
        }
      ],
      "name": "TransferSingle",
      "type": "event"
    },
    {
      "anonymous": false,
      "inputs": [
        {
          "indexed": false,
          "internalType": "string",
          "name": "value",
          "type": "string"
        },
        {
          "indexed": true,
          "internalType": "uint256",
          "name": "id",
          "type": "uint256"
        }
      ],
      "name": "URI",
      "type": "event"
    },
    {
      "inputs": [
        {
          "internalType": "address",
          "name": "account",
          "type": "address"
        },
        {
          "internalType": "uint256",
          "name": "id",
          "type": "uint256"
        }
      ],
      "name": "balanceOf",
      "outputs": [
        {
          "internalType": "uint256",
          "name": "",
          "type": "uint256"
        }
      ],
      "stateMutability": "view",
      "type": "function",
      "constant": true
    },
    {
      "inputs": [
        {
          "internalType": "address[]",
          "name": "accounts",
          "type": "address[]"
        },
        {
          "internalType": "uint256[]",
          "name": "ids",
          "type": "uint256[]"
        }
      ],
      "name": "balanceOfBatch",
      "outputs": [
        {
          "internalType": "uint256[]",
          "name": "",
          "type": "uint256[]"
        }
      ],
      "stateMutability": "view",
      "type": "function",
      "constant": true
    },
    {
      "inputs": [
        {
          "internalType": "address",
          "name": "account",
          "type": "address"
        },
        {
          "internalType": "address",
          "name": "operator",
          "type": "address"
        }
      ],
      "name": "isApprovedForAll",
      "outputs": [
        {
          "internalType": "bool",
          "name": "",
          "type": "bool"
        }
      ],
      "stateMutability": "view",
      "type": "function",
      "constant": true
    },
    {
      "inputs": [
        {
          "internalType": "uint256",
          "name": "",
          "type": "uint256"
        }
      ],
      "name": "mintedTokenEndDates",
      "outputs": [
        {
          "internalType": "uint256",
          "name": "",
          "type": "uint256"
        }
      ],
      "stateMutability": "view",
      "type": "function",
      "constant": true
    },
    {
      "inputs": [
        {
          "internalType": "uint256",
          "name": "",
          "type": "uint256"
        }
      ],
      "name": "mintedTokenIPFSHashes",
      "outputs": [
        {
          "internalType": "string",
          "name": "",
          "type": "string"
        }
      ],
      "stateMutability": "view",
      "type": "function",
      "constant": true
    },
    {
      "inputs": [
        {
          "internalType": "uint256",
          "name": "",
          "type": "uint256"
        }
      ],
      "name": "mintedTokenProjectNames",
      "outputs": [
        {
          "internalType": "string",
          "name": "",
          "type": "string"
        }
      ],
      "stateMutability": "view",
      "type": "function",
      "constant": true
    },
    {
      "inputs": [
        {
          "internalType": "uint256",
          "name": "",
          "type": "uint256"
        }
      ],
      "name": "mintedTokenStartDates",
      "outputs": [
        {
          "internalType": "uint256",
          "name": "",
          "type": "uint256"
        }
      ],
      "stateMutability": "view",
      "type": "function",
      "constant": true
    },
    {
      "inputs": [],
      "name": "operatorSharePercentage",
      "outputs": [
        {
          "internalType": "uint256",
          "name": "",
          "type": "uint256"
        }
      ],
      "stateMutability": "view",
      "type": "function",
      "constant": true
    },
    {
      "inputs": [],
      "name": "owner",
      "outputs": [
        {
          "internalType": "address",
          "name": "",
          "type": "address"
        }
      ],
      "stateMutability": "view",
      "type": "function",
      "constant": true
    },
    {
      "inputs": [],
      "name": "ownerSharePercentage",
      "outputs": [
        {
          "internalType": "uint256",
          "name": "",
          "type": "uint256"
        }
      ],
      "stateMutability": "view",
      "type": "function",
      "constant": true
    },
    {
      "inputs": [],
      "name": "renounceOwnership",
      "outputs": [],
      "stateMutability": "nonpayable",
      "type": "function"
    },
    {
      "inputs": [
        {
          "internalType": "address",
          "name": "from",
          "type": "address"
        },
        {
          "internalType": "address",
          "name": "to",
          "type": "address"
        },
        {
          "internalType": "uint256[]",
          "name": "ids",
          "type": "uint256[]"
        },
        {
          "internalType": "uint256[]",
          "name": "amounts",
          "type": "uint256[]"
        },
        {
          "internalType": "bytes",
          "name": "data",
          "type": "bytes"
        }
      ],
      "name": "safeBatchTransferFrom",
      "outputs": [],
      "stateMutability": "nonpayable",
      "type": "function"
    },
    {
      "inputs": [
        {
          "internalType": "bytes4",
          "name": "interfaceId",
          "type": "bytes4"
        }
      ],
      "name": "supportsInterface",
      "outputs": [
        {
          "internalType": "bool",
          "name": "",
          "type": "bool"
        }
      ],
      "stateMutability": "view",
      "type": "function",
      "constant": true
    },
    {
      "inputs": [
        {
          "internalType": "address",
          "name": "newOwner",
          "type": "address"
        }
      ],
      "name": "transferOwnership",
      "outputs": [],
      "stateMutability": "nonpayable",
      "type": "function"
    },
    {
      "inputs": [
        {
          "internalType": "uint256",
          "name": "",
          "type": "uint256"
        }
      ],
      "name": "uri",
      "outputs": [
        {
          "internalType": "string",
          "name": "",
          "type": "string"
        }
      ],
      "stateMutability": "view",
      "type": "function",
      "constant": true
    },
    {
      "inputs": [
        {
          "internalType": "uint256",
          "name": "CCT",
          "type": "uint256"
        },
        {
          "internalType": "string",
          "name": "projectName",
          "type": "string"
        },
        {
          "internalType": "uint256",
          "name": "startDate",
          "type": "uint256"
        },
        {
          "internalType": "uint256",
          "name": "endDate",
          "type": "uint256"
        },
        {
          "internalType": "string",
          "name": "ipfsHash",
          "type": "string"
        }
      ],
      "name": "mint",
      "outputs": [],
      "stateMutability": "nonpayable",
      "type": "function"
    },
    {
      "inputs": [],
      "name": "getLastMintedTokenId",
      "outputs": [
        {
          "internalType": "uint256",
          "name": "",
          "type": "uint256"
        }
      ],
      "stateMutability": "view",
      "type": "function",
      "constant": true
    },
    {
      "inputs": [],
      "name": "getLastMintedTokenDetails",
      "outputs": [
        {
          "internalType": "address",
          "name": "account",
          "type": "address"
        },
        {
          "internalType": "uint256",
          "name": "CCT",
          "type": "uint256"
        },
        {
          "internalType": "uint256",
          "name": "tokenId",
          "type": "uint256"
        }
      ],
      "stateMutability": "view",
      "type": "function",
      "constant": true
    },
    {
      "inputs": [
        {
          "internalType": "uint256",
          "name": "_operatorSharePercentage",
          "type": "uint256"
        },
        {
          "internalType": "uint256",
          "name": "_ownerSharePercentage",
          "type": "uint256"
        }
      ],
      "name": "setShares",
      "outputs": [],
      "stateMutability": "nonpayable",
      "type": "function"
    },
    {
      "inputs": [
        {
          "internalType": "uint256",
          "name": "tokenId",
          "type": "uint256"
        }
      ],
      "name": "getMinterOfToken",
      "outputs": [
        {
          "internalType": "address",
          "name": "",
          "type": "address"
        }
      ],
      "stateMutability": "view",
      "type": "function",
      "constant": true
    },
    {
      "inputs": [
        {
          "internalType": "address",
          "name": "operator",
          "type": "address"
        },
        {
          "internalType": "bool",
          "name": "approved",
          "type": "bool"
        }
      ],
      "name": "setApprovalForAll",
      "outputs": [],
      "stateMutability": "nonpayable",
      "type": "function"
    },
    {
      "inputs": [],
      "name": "executeSetApprovalForAll",
      "outputs": [],
      "stateMutability": "nonpayable",
      "type": "function"
    },
    {
      "inputs": [
        {
          "internalType": "uint256",
          "name": "tokenId",
          "type": "uint256"
        }
      ],
      "name": "getMintedTokenInfo",
      "outputs": [
        {
          "internalType": "uint256",
          "name": "CCT",
          "type": "uint256"
        },
        {
          "internalType": "string",
          "name": "projectName",
          "type": "string"
        },
        {
          "internalType": "uint256",
          "name": "startDate",
          "type": "uint256"
        },
        {
          "internalType": "uint256",
          "name": "endDate",
          "type": "uint256"
        },
        {
          "internalType": "string",
          "name": "ipfsHash",
          "type": "string"
        },
        {
          "internalType": "address",
          "name": "creatorContract",
          "type": "address"
        }
      ],
      "stateMutability": "view",
      "type": "function",
      "constant": true
    },
    {
      "inputs": [],
      "name": "getMintedTokenInfoAll",
      "outputs": [
        {
          "internalType": "uint256[]",
          "name": "tokenIds",
          "type": "uint256[]"
        },
        {
          "internalType": "uint256[]",
          "name": "CCTs",
          "type": "uint256[]"
        },
        {
          "internalType": "string[]",
          "name": "projectNames",
          "type": "string[]"
        },
        {
          "internalType": "uint256[]",
          "name": "startDates",
          "type": "uint256[]"
        },
        {
          "internalType": "uint256[]",
          "name": "endDates",
          "type": "uint256[]"
        },
        {
          "internalType": "string[]",
          "name": "ipfsHashes",
          "type": "string[]"
        },
        {
          "internalType": "address[]",
          "name": "creatorContracts",
          "type": "address[]"
        }
      ],
      "stateMutability": "view",
      "type": "function",
      "constant": true
    },
    {
      "inputs": [
        {
          "internalType": "address",
          "name": "from",
          "type": "address"
        },
        {
          "internalType": "address",
          "name": "to",
          "type": "address"
        },
        {
          "internalType": "uint256",
          "name": "id",
          "type": "uint256"
        },
        {
          "internalType": "uint256",
          "name": "amount",
          "type": "uint256"
        },
        {
          "internalType": "bytes",
          "name": "data",
          "type": "bytes"
        }
      ],
      "name": "safeTransferFrom",
      "outputs": [],
      "stateMutability": "nonpayable",
      "type": "function"
    },
    {
      "inputs": [
        {
          "internalType": "uint256",
          "name": "tokenId",
          "type": "uint256"
        },
        {
          "internalType": "uint256",
          "name": "amount",
          "type": "uint256"
        }
      ],
      "name": "buyTokens",
      "outputs": [],
      "stateMutability": "payable",
      "type": "function",
      "payable": true
    },
    {
      "inputs": [
        {
          "internalType": "address",
          "name": "contractAddress",
          "type": "address"
        }
      ],
      "name": "getMintedTokenInfoByContract",
      "outputs": [
        {
          "internalType": "uint256[]",
          "name": "tokenIds",
          "type": "uint256[]"
        },
        {
          "internalType": "uint256[]",
          "name": "CCTs",
          "type": "uint256[]"
        },
        {
          "internalType": "string[]",
          "name": "projectNames",
          "type": "string[]"
        },
        {
          "internalType": "uint256[]",
          "name": "startDates",
          "type": "uint256[]"
        },
        {
          "internalType": "uint256[]",
          "name": "endDates",
          "type": "uint256[]"
        },
        {
          "internalType": "string[]",
          "name": "ipfsHashes",
          "type": "string[]"
        },
        {
          "internalType": "address[]",
          "name": "creatorContracts",
          "type": "address[]"
        }
      ],
      "stateMutability": "view",
      "type": "function",
      "constant": true
    }
  ],
  "bytecode": "0x60806040526050600c556014600d556000600e553480156200002057600080fd5b5060408051808201909152601d81527f68747470733a2f2f6d796170692f746f6b656e2f7b69647d2e6a736f6e0000006020820152620000608162000084565b506200006c336200009d565b600580546001600160a01b03191633179055620001d2565b805162000099906002906020840190620000ef565b5050565b600380546001600160a01b038381166001600160a01b0319831681179093556040519116919082907f8be0079c531659141344cd1fd0a4f28419497f9722a3daafe3b4186f6b6457e090600090a35050565b828054620000fd9062000195565b90600052602060002090601f0160209004810192826200012157600085556200016c565b82601f106200013c57805160ff19168380011785556200016c565b828001600101855582156200016c579182015b828111156200016c5782518255916020019190600101906200014f565b506200017a9291506200017e565b5090565b5b808211156200017a57600081556001016200017f565b600181811c90821680620001aa57607f821691505b60208210811415620001cc57634e487b7160e01b600052602260045260246000fd5b50919050565b61300280620001e26000396000f3fe60806040526004361061019b5760003560e01c80634e1273f4116100ec5780638da5cb5b1161008a578063c362148211610064578063c362148214610502578063e985e9c514610517578063f242432a14610560578063f2fde38b1461058057600080fd5b80638da5cb5b146104975780638f0f471b146104b5578063a22cb465146104e257600080fd5b8063715018a6116100c6578063715018a61461043a5780637974e46a1461044f5780637975ce28146104645780637a25d9cf1461047757600080fd5b80634e1273f4146103cd57806355b407aa146103fa5780636db879311461041a57600080fd5b806326475128116101595780632eb2c2d6116101335780632eb2c2d6146102f357806330df3b19146103135780633735b8d9146103615780633bf69ac31461039b57600080fd5b806326475128146102845780632872b2e0146102b15780632aca3e7d146102d157600080fd5b8062fdd58e146101a057806301ffc9a7146101d35780630bae0e17146102035780630e89341c146102195780631479c438146102465780631c315e801461026e575b600080fd5b3480156101ac57600080fd5b506101c06101bb36600461251d565b6105a0565b6040519081526020015b60405180910390f35b3480156101df57600080fd5b506101f36101ee36600461255d565b610636565b60405190151581526020016101ca565b34801561020f57600080fd5b506101c0600d5481565b34801561022557600080fd5b50610239610234366004612581565b610688565b6040516101ca91906125e7565b34801561025257600080fd5b5061025b61071c565b6040516101ca979695949392919061268d565b34801561027a57600080fd5b506101c0600c5481565b34801561029057600080fd5b506101c061029f366004612581565b600a6020526000908152604090205481565b3480156102bd57600080fd5b506102396102cc366004612581565b610c02565b3480156102dd57600080fd5b506102f16102ec366004612753565b610c9c565b005b3480156102ff57600080fd5b506102f161030e3660046128be565b610cfa565b34801561031f57600080fd5b5061034961032e366004612581565b6000908152600660205260409020546001600160a01b031690565b6040516001600160a01b0390911681526020016101ca565b34801561036d57600080fd5b50610376610d46565b604080516001600160a01b0390941684526020840192909252908201526060016101ca565b3480156103a757600080fd5b506103bb6103b6366004612581565b610dc4565b6040516101ca96959493929190612967565b3480156103d957600080fd5b506103ed6103e83660046129ba565b610fa4565b6040516101ca9190612a84565b34801561040657600080fd5b506102f1610415366004612a97565b6110cd565b34801561042657600080fd5b50610239610435366004612581565b6113ae565b34801561044657600080fd5b506102f16113c7565b34801561045b57600080fd5b50600e546101c0565b6102f1610472366004612753565b6113db565b34801561048357600080fd5b5061025b610492366004612afd565b6115e6565b3480156104a357600080fd5b506003546001600160a01b0316610349565b3480156104c157600080fd5b506101c06104d0366004612581565b60096020526000908152604090205481565b3480156104ee57600080fd5b506102f16104fd366004612b18565b611b5a565b34801561050e57600080fd5b506102f1611b75565b34801561052357600080fd5b506101f3610532366004612b54565b6001600160a01b03918216600090815260016020908152604080832093909416825291909152205460ff1690565b34801561056c57600080fd5b506102f161057b366004612b87565b611b80565b34801561058c57600080fd5b506102f161059b366004612afd565b611bd0565b60006001600160a01b0383166106105760405162461bcd60e51b815260206004820152602a60248201527f455243313135353a2061646472657373207a65726f206973206e6f742061207660448201526930b634b21037bbb732b960b11b60648201526084015b60405180910390fd5b506000908152602081815260408083206001600160a01b03949094168352929052205490565b60006001600160e01b03198216636cdb3d1360e11b148061066757506001600160e01b031982166303a24d0760e21b145b8061068257506301ffc9a760e01b6001600160e01b03198316145b92915050565b60606002805461069790612beb565b80601f01602080910402602001604051908101604052809291908181526020018280546106c390612beb565b80156107105780601f106106e557610100808354040283529160200191610710565b820191906000526020600020905b8154815290600101906020018083116106f357829003601f168201915b50505050509050919050565b6060806060806060806060600e546001600160401b0381111561074157610741612775565b60405190808252806020026020018201604052801561076a578160200160208202803683370190505b509650600e546001600160401b0381111561078757610787612775565b6040519080825280602002602001820160405280156107b0578160200160208202803683370190505b509550600e546001600160401b038111156107cd576107cd612775565b60405190808252806020026020018201604052801561080057816020015b60608152602001906001900390816107eb5790505b509450600e546001600160401b0381111561081d5761081d612775565b604051908082528060200260200182016040528015610846578160200160208202803683370190505b509350600e546001600160401b0381111561086357610863612775565b60405190808252806020026020018201604052801561088c578160200160208202803683370190505b509250600e546001600160401b038111156108a9576108a9612775565b6040519080825280602002602001820160405280156108dc57816020015b60608152602001906001900390816108c75790505b509150600e546001600160401b038111156108f9576108f9612775565b604051908082528060200260200182016040528015610922578160200160208202803683370190505b50905060015b600e548111610bf857808861093e600183612c3c565b8151811061094e5761094e612c53565b60209081029190910181019190915260008281526007909152604090205487610978600184612c3c565b8151811061098857610988612c53565b6020026020010181815250506008600082815260200190815260200160002080546109b290612beb565b80601f01602080910402602001604051908101604052809291908181526020018280546109de90612beb565b8015610a2b5780601f10610a0057610100808354040283529160200191610a2b565b820191906000526020600020905b815481529060010190602001808311610a0e57829003601f168201915b505050505086600183610a3e9190612c3c565b81518110610a4e57610a4e612c53565b6020026020010181905250600960008281526020019081526020016000205485600183610a7b9190612c3c565b81518110610a8b57610a8b612c53565b6020908102919091018101919091526000828152600a909152604090205484610ab5600184612c3c565b81518110610ac557610ac5612c53565b602002602001018181525050600b60008281526020019081526020016000208054610aef90612beb565b80601f0160208091040260200160405190810160405280929190818152602001828054610b1b90612beb565b8015610b685780601f10610b3d57610100808354040283529160200191610b68565b820191906000526020600020905b815481529060010190602001808311610b4b57829003601f168201915b505050505083600183610b7b9190612c3c565b81518110610b8b57610b8b612c53565b6020908102919091018101919091526000828152600690915260409020546001600160a01b031682610bbe600184612c3c565b81518110610bce57610bce612c53565b6001600160a01b039092166020928302919091019091015280610bf081612c69565b915050610928565b5090919293949596565b60086020526000908152604090208054610c1b90612beb565b80601f0160208091040260200160405190810160405280929190818152602001828054610c4790612beb565b8015610c945780601f10610c6957610100808354040283529160200191610c94565b820191906000526020600020905b815481529060010190602001808311610c7757829003601f168201915b505050505081565b610ca4611c49565b6064610cb08284612c84565b1115610cef5760405162461bcd60e51b815260206004820152600e60248201526d496e76616c69642073686172657360901b6044820152606401610607565b600c91909155600d55565b6001600160a01b038516331480610d165750610d168533610532565b610d325760405162461bcd60e51b815260040161060790612c9c565b610d3f8585858585611ca3565b5050505050565b600080600080600e5411610d935760405162461bcd60e51b8152602060048201526014602482015273139bc81d1bdad95b9cc81b5a5b9d1959081e595d60621b6044820152606401610607565b5050600e546000818152600660209081526040808320546007909252909120546001600160a01b0390911693909250565b6000606060008060606000600e548711158015610de15750600087115b610e205760405162461bcd60e51b815260206004820152601060248201526f125b9d985b1a59081d1bdad95b88125160821b6044820152606401610607565b6000878152600760209081526040808320546008909252909120805491975090610e4990612beb565b80601f0160208091040260200160405190810160405280929190818152602001828054610e7590612beb565b8015610ec25780601f10610e9757610100808354040283529160200191610ec2565b820191906000526020600020905b815481529060010190602001808311610ea557829003601f168201915b50505060008a815260096020908152604080832054600a835281842054600b90935292208054959a50919850965092610efd92509050612beb565b80601f0160208091040260200160405190810160405280929190818152602001828054610f2990612beb565b8015610f765780601f10610f4b57610100808354040283529160200191610f76565b820191906000526020600020905b815481529060010190602001808311610f5957829003601f168201915b5050506000998a525050600660205260409097205495979496939592946001600160a01b0390931692915050565b606081518351146110095760405162461bcd60e51b815260206004820152602960248201527f455243313135353a206163636f756e747320616e6420696473206c656e677468604482015268040dad2e6dac2e8c6d60bb1b6064820152608401610607565b600083516001600160401b0381111561102457611024612775565b60405190808252806020026020018201604052801561104d578160200160208202803683370190505b50905060005b84518110156110c55761109885828151811061107157611071612c53565b602002602001015185838151811061108b5761108b612c53565b60200260200101516105a0565b8282815181106110aa576110aa612c53565b60209081029190910101526110be81612c69565b9050611053565b509392505050565b600085116111325760405162461bcd60e51b815260206004820152602c60248201527f5175616e74696461646520646520746f6b656e73206465766520736572206d6160448201526b696f7220717565207a65726f60a01b6064820152608401610607565b8183106111965760405162461bcd60e51b815260206004820152602c60248201527f446174617320696e6963696f206465766520736572206d656e6f72207175652060448201526b61206465207465726d696e6f60a01b6064820152608401610607565b60008451116111f25760405162461bcd60e51b815260206004820152602260248201527f4e6f6d6520646f2070726f6a65746f206e616f20706f6465207365722076617a604482015261696f60f01b6064820152608401610607565b60008151116112435760405162461bcd60e51b815260206004820152601c60248201527f486173682049504653206e616f20706f6465207365722076617a696f000000006044820152606401610607565b821580159061125157508115155b61129d5760405162461bcd60e51b815260206004820181905260248201527f696e666f726d65206461746520646520696e6963696f2065207465726d696e6f6044820152606401610607565b600e546112ab906001612c84565b600e556112bc600480546001019055565b60006112c760045490565b600081815260066020908152604080832080546001600160a01b03191633179055600782528083208a905560088252909120875192935061130c929091880190612468565b506000818152600960209081526040808320879055600a8252808320869055600b8252909120835161134092850190612468565b5061135c33828860405180602001604052806000815250611e80565b336001600160a01b0316817f05724b9274168c95183a12a9204621610831572e9a9f5d7078cc443cb3482568888888888860405161139e959493929190612cea565b60405180910390a3505050505050565b600b6020526000908152604090208054610c1b90612beb565b6113cf611c49565b6113d96000611f8b565b565b6000828152600760205260409020548111156114305760405162461bcd60e51b8152602060048201526014602482015273496e73756666696369656e742062616c616e636560601b6044820152606401610607565b600061144482670de0b6b3a7640000612d2d565b905060006064600c54836114589190612d2d565b6114629190612d4c565b905060006064600d54846114769190612d2d565b6114809190612d4c565b9050823410156114c95760405162461bcd60e51b8152602060048201526014602482015273125b9cdd59999a58da595b9d081c185e5b595b9d60621b6044820152606401610607565b600085815260076020526040812080548692906114e7908490612c3c565b909155506114f89050336001611b5a565b60008581526006602090815260408083205481518981529283018890526001600160a01b0316923392909184917fc3d58168c5ae7397731d063d5bbf3d657854427343f4c083240f7aacaa2d0f62910160405180910390a461156c8133888860405180602001604052806000815250611b80565b6003546040516001600160a01b039091169083156108fc029084906000818181858888f193505050501580156115a6573d6000803e3d6000fd5b506040516001600160a01b0382169084156108fc029085906000818181858888f193505050501580156115dd573d6000803e3d6000fd5b50505050505050565b60608060608060608060606000600e546001600160401b0381111561160d5761160d612775565b604051908082528060200260200182016040528015611636578160200160208202803683370190505b509050600060015b600e5481116116a7576000818152600660205260409020546001600160a01b038c811691161415611695578083838151811061167c5761167c612c53565b60209081029190910101528161169181612c69565b9250505b8061169f81612c69565b91505061163e565b50806001600160401b038111156116c0576116c0612775565b6040519080825280602002602001820160405280156116e9578160200160208202803683370190505b509850806001600160401b0381111561170457611704612775565b60405190808252806020026020018201604052801561172d578160200160208202803683370190505b509750806001600160401b0381111561174857611748612775565b60405190808252806020026020018201604052801561177b57816020015b60608152602001906001900390816117665790505b509650806001600160401b0381111561179657611796612775565b6040519080825280602002602001820160405280156117bf578160200160208202803683370190505b509550806001600160401b038111156117da576117da612775565b604051908082528060200260200182016040528015611803578160200160208202803683370190505b509450806001600160401b0381111561181e5761181e612775565b60405190808252806020026020018201604052801561185157816020015b606081526020019060019003908161183c5790505b509350806001600160401b0381111561186c5761186c612775565b604051908082528060200260200182016040528015611895578160200160208202803683370190505b50925060005b81811015611b4c5760008382815181106118b7576118b7612c53565b60200260200101519050808b83815181106118d4576118d4612c53565b60200260200101818152505060076000828152602001908152602001600020548a838151811061190657611906612c53565b60200260200101818152505060086000828152602001908152602001600020805461193090612beb565b80601f016020809104026020016040519081016040528092919081815260200182805461195c90612beb565b80156119a95780601f1061197e576101008083540402835291602001916119a9565b820191906000526020600020905b81548152906001019060200180831161198c57829003601f168201915b50505050508983815181106119c0576119c0612c53565b602002602001018190525060096000828152602001908152602001600020548883815181106119f1576119f1612c53565b602002602001018181525050600a600082815260200190815260200160002054878381518110611a2357611a23612c53565b602002602001018181525050600b60008281526020019081526020016000208054611a4d90612beb565b80601f0160208091040260200160405190810160405280929190818152602001828054611a7990612beb565b8015611ac65780601f10611a9b57610100808354040283529160200191611ac6565b820191906000526020600020905b815481529060010190602001808311611aa957829003601f168201915b5050505050868381518110611add57611add612c53565b60200260200101819052506006600082815260200190815260200160002060009054906101000a90046001600160a01b0316858381518110611b2157611b21612c53565b6001600160a01b03909216602092830291909101909101525080611b4481612c69565b91505061189b565b505050919395979092949650565b600554611b71906001600160a01b03168383611fdd565b5050565b6113d9336001611b5a565b836001600160a01b0316611b9c6003546001600160a01b031690565b6001600160a01b03161415611bc35760405162461bcd60e51b815260040161060790612c9c565b610d3f85858585856120be565b611bd8611c49565b6001600160a01b038116611c3d5760405162461bcd60e51b815260206004820152602660248201527f4f776e61626c653a206e6577206f776e657220697320746865207a65726f206160448201526564647265737360d01b6064820152608401610607565b611c4681611f8b565b50565b6003546001600160a01b031633146113d95760405162461bcd60e51b815260206004820181905260248201527f4f776e61626c653a2063616c6c6572206973206e6f7420746865206f776e65726044820152606401610607565b8151835114611d055760405162461bcd60e51b815260206004820152602860248201527f455243313135353a2069647320616e6420616d6f756e7473206c656e677468206044820152670dad2e6dac2e8c6d60c31b6064820152608401610607565b6001600160a01b038416611d2b5760405162461bcd60e51b815260040161060790612d6e565b3360005b8451811015611e12576000858281518110611d4c57611d4c612c53565b602002602001015190506000858381518110611d6a57611d6a612c53565b602090810291909101810151600084815280835260408082206001600160a01b038e168352909352919091205490915081811015611dba5760405162461bcd60e51b815260040161060790612db3565b6000838152602081815260408083206001600160a01b038e8116855292528083208585039055908b16825281208054849290611df7908490612c84565b9250508190555050505080611e0b90612c69565b9050611d2f565b50846001600160a01b0316866001600160a01b0316826001600160a01b03167f4a39dc06d4c0dbc64b70af90fd698a233a518aa5d07e595d983b8c0526c8f7fb8787604051611e62929190612dfd565b60405180910390a4611e788187878787876121e8565b505050505050565b6001600160a01b038416611ee05760405162461bcd60e51b815260206004820152602160248201527f455243313135353a206d696e7420746f20746865207a65726f206164647265736044820152607360f81b6064820152608401610607565b336000611eec85612353565b90506000611ef985612353565b90506000868152602081815260408083206001600160a01b038b16845290915281208054879290611f2b908490612c84565b909155505060408051878152602081018790526001600160a01b03808a1692600092918716917fc3d58168c5ae7397731d063d5bbf3d657854427343f4c083240f7aacaa2d0f62910160405180910390a46115dd8360008989898961239e565b600380546001600160a01b038381166001600160a01b0319831681179093556040519116919082907f8be0079c531659141344cd1fd0a4f28419497f9722a3daafe3b4186f6b6457e090600090a35050565b816001600160a01b0316836001600160a01b031614156120515760405162461bcd60e51b815260206004820152602960248201527f455243313135353a2073657474696e6720617070726f76616c20737461747573604482015268103337b91039b2b63360b91b6064820152608401610607565b6001600160a01b03838116600081815260016020908152604080832094871680845294825291829020805460ff191686151590811790915591519182527f17307eab39ab6107e8899845ad3d59bd9653f200f220920489ca2b5937696c31910160405180910390a3505050565b6001600160a01b0384166120e45760405162461bcd60e51b815260040161060790612d6e565b3360006120f085612353565b905060006120fd85612353565b90506000868152602081815260408083206001600160a01b038c168452909152902054858110156121405760405162461bcd60e51b815260040161060790612db3565b6000878152602081815260408083206001600160a01b038d8116855292528083208985039055908a1682528120805488929061217d908490612c84565b909155505060408051888152602081018890526001600160a01b03808b16928c821692918816917fc3d58168c5ae7397731d063d5bbf3d657854427343f4c083240f7aacaa2d0f62910160405180910390a46121dd848a8a8a8a8a61239e565b505050505050505050565b6001600160a01b0384163b15611e785760405163bc197c8160e01b81526001600160a01b0385169063bc197c819061222c9089908990889088908890600401612e2b565b602060405180830381600087803b15801561224657600080fd5b505af1925050508015612276575060408051601f3d908101601f1916820190925261227391810190612e7d565b60015b61232357612282612e9a565b806308c379a014156122bc5750612297612eb6565b806122a257506122be565b8060405162461bcd60e51b815260040161060791906125e7565b505b60405162461bcd60e51b815260206004820152603460248201527f455243313135353a207472616e7366657220746f206e6f6e2d455243313135356044820152732932b1b2b4bb32b91034b6b83632b6b2b73a32b960611b6064820152608401610607565b6001600160e01b0319811663bc197c8160e01b146115dd5760405162461bcd60e51b815260040161060790612f3f565b6040805160018082528183019092526060916000919060208083019080368337019050509050828160008151811061238d5761238d612c53565b602090810291909101015292915050565b6001600160a01b0384163b15611e785760405163f23a6e6160e01b81526001600160a01b0385169063f23a6e61906123e29089908990889088908890600401612f87565b602060405180830381600087803b1580156123fc57600080fd5b505af192505050801561242c575060408051601f3d908101601f1916820190925261242991810190612e7d565b60015b61243857612282612e9a565b6001600160e01b0319811663f23a6e6160e01b146115dd5760405162461bcd60e51b815260040161060790612f3f565b82805461247490612beb565b90600052602060002090601f01602090048101928261249657600085556124dc565b82601f106124af57805160ff19168380011785556124dc565b828001600101855582156124dc579182015b828111156124dc5782518255916020019190600101906124c1565b506124e89291506124ec565b5090565b5b808211156124e857600081556001016124ed565b80356001600160a01b038116811461251857600080fd5b919050565b6000806040838503121561253057600080fd5b61253983612501565b946020939093013593505050565b6001600160e01b031981168114611c4657600080fd5b60006020828403121561256f57600080fd5b813561257a81612547565b9392505050565b60006020828403121561259357600080fd5b5035919050565b6000815180845260005b818110156125c0576020818501810151868301820152016125a4565b818111156125d2576000602083870101525b50601f01601f19169290920160200192915050565b60208152600061257a602083018461259a565b600081518084526020808501945080840160005b8381101561262a5781518752958201959082019060010161260e565b509495945050505050565b600082825180855260208086019550808260051b84010181860160005b8481101561268057601f1986840301895261266e83835161259a565b98840198925090830190600101612652565b5090979650505050505050565b60e0815260006126a060e083018a6125fa565b6020838203818501526126b3828b6125fa565b915083820360408501526126c7828a612635565b915083820360608501526126db82896125fa565b915083820360808501526126ef82886125fa565b915083820360a08501526127038287612635565b84810360c0860152855180825282870193509082019060005b818110156127415784516001600160a01b03168352938301939183019160010161271c565b50909c9b505050505050505050505050565b6000806040838503121561276657600080fd5b50508035926020909101359150565b634e487b7160e01b600052604160045260246000fd5b601f8201601f191681016001600160401b03811182821017156127b0576127b0612775565b6040525050565b60006001600160401b038211156127d0576127d0612775565b5060051b60200190565b600082601f8301126127eb57600080fd5b813560206127f8826127b7565b604051612805828261278b565b83815260059390931b850182019282810191508684111561282557600080fd5b8286015b848110156128405780358352918301918301612829565b509695505050505050565b600082601f83011261285c57600080fd5b81356001600160401b0381111561287557612875612775565b60405161288c601f8301601f19166020018261278b565b8181528460208386010111156128a157600080fd5b816020850160208301376000918101602001919091529392505050565b600080600080600060a086880312156128d657600080fd5b6128df86612501565b94506128ed60208701612501565b935060408601356001600160401b038082111561290957600080fd5b61291589838a016127da565b9450606088013591508082111561292b57600080fd5b61293789838a016127da565b9350608088013591508082111561294d57600080fd5b5061295a8882890161284b565b9150509295509295909350565b86815260c06020820152600061298060c083018861259a565b866040840152856060840152828103608084015261299e818661259a565b91505060018060a01b03831660a0830152979650505050505050565b600080604083850312156129cd57600080fd5b82356001600160401b03808211156129e457600080fd5b818501915085601f8301126129f857600080fd5b81356020612a05826127b7565b604051612a12828261278b565b83815260059390931b8501820192828101915089841115612a3257600080fd5b948201945b83861015612a5757612a4886612501565b82529482019490820190612a37565b96505086013592505080821115612a6d57600080fd5b50612a7a858286016127da565b9150509250929050565b60208152600061257a60208301846125fa565b600080600080600060a08688031215612aaf57600080fd5b8535945060208601356001600160401b0380821115612acd57600080fd5b612ad989838a0161284b565b95506040880135945060608801359350608088013591508082111561294d57600080fd5b600060208284031215612b0f57600080fd5b61257a82612501565b60008060408385031215612b2b57600080fd5b612b3483612501565b915060208301358015158114612b4957600080fd5b809150509250929050565b60008060408385031215612b6757600080fd5b612b7083612501565b9150612b7e60208401612501565b90509250929050565b600080600080600060a08688031215612b9f57600080fd5b612ba886612501565b9450612bb660208701612501565b9350604086013592506060860135915060808601356001600160401b03811115612bdf57600080fd5b61295a8882890161284b565b600181811c90821680612bff57607f821691505b60208210811415612c2057634e487b7160e01b600052602260045260246000fd5b50919050565b634e487b7160e01b600052601160045260246000fd5b600082821015612c4e57612c4e612c26565b500390565b634e487b7160e01b600052603260045260246000fd5b6000600019821415612c7d57612c7d612c26565b5060010190565b60008219821115612c9757612c97612c26565b500190565b6020808252602e908201527f455243313135353a2063616c6c6572206973206e6f7420746f6b656e206f776e60408201526d195c881bdc88185c1c1c9bdd995960921b606082015260800190565b85815260a060208201526000612d0360a083018761259a565b8560408401528460608401528281036080840152612d21818561259a565b98975050505050505050565b6000816000190483118215151615612d4757612d47612c26565b500290565b600082612d6957634e487b7160e01b600052601260045260246000fd5b500490565b60208082526025908201527f455243313135353a207472616e7366657220746f20746865207a65726f206164604082015264647265737360d81b606082015260800190565b6020808252602a908201527f455243313135353a20696e73756666696369656e742062616c616e636520666f60408201526939103a3930b739b332b960b11b606082015260800190565b604081526000612e1060408301856125fa565b8281036020840152612e2281856125fa565b95945050505050565b6001600160a01b0386811682528516602082015260a060408201819052600090612e57908301866125fa565b8281036060840152612e6981866125fa565b90508281036080840152612d21818561259a565b600060208284031215612e8f57600080fd5b815161257a81612547565b600060033d1115612eb35760046000803e5060005160e01c5b90565b600060443d1015612ec45790565b6040516003193d81016004833e81513d6001600160401b038160248401118184111715612ef357505050505090565b8285019150815181811115612f0b5750505050505090565b843d8701016020828501011115612f255750505050505090565b612f346020828601018761278b565b509095945050505050565b60208082526028908201527f455243313135353a204552433131353552656365697665722072656a656374656040820152676420746f6b656e7360c01b606082015260800190565b6001600160a01b03868116825285166020820152604081018490526060810183905260a060808201819052600090612fc19083018461259a565b97965050505050505056fea26469706673582212209675abdb88abc4d962d14144db745314ab7db4e31010099bc5ed78b20ec5e04a64736f6c63430008090033",
  "immutableReferences": {},
  "source": "// SPDX-License-Identifier: MIT\r\npragma solidity ^0.8.9;\r\n\r\nimport \"@openzeppelin/contracts/token/ERC1155/ERC1155.sol\";\r\nimport \"@openzeppelin/contracts/token/ERC1155/extensions/ERC1155Supply.sol\";\r\nimport \"@openzeppelin/contracts/access/Ownable.sol\";\r\nimport \"@openzeppelin/contracts/utils/Counters.sol\";\r\n//IPFS            QmVeNDxGwFNgF4JB6LSK2GvWFv9M8FskrDTmf1c99LV2Zx\r\n//startedate  1675257200000 = Wed 20 September 2023 21:46:40 (data-type is \"Number\")\r\n//Endedate    1695257200000 = Wed  1 February  2023 10:13:20 (data-type is \"Number\")\r\n// A variavel \"amount\" eu subistui pela var = CCT para indicar a quantide de Tokens de que contrato vai disponibilidar.\r\n\r\ncontract SmartTokens is ERC1155, Ownable {\r\n    using Counters for Counters.Counter;\r\n    Counters.Counter private tokenIdCounter;\r\n    address authorizer;\r\n    mapping(uint256 => address) private mintedTokenAccounts;\r\n    mapping(uint256 => uint256) private mintedTokenAmounts; \r\n    mapping(uint256 => string)  public mintedTokenProjectNames;\r\n    mapping(uint256 => uint256) public mintedTokenStartDates;\r\n    mapping(uint256 => uint256) public mintedTokenEndDates;\r\n    mapping(uint256 => string)  public mintedTokenIPFSHashes;   \r\n    uint256 public operatorSharePercentage = 80;\r\n    uint256 public ownerSharePercentage = 20;\r\n    uint256 private lastMintedTokenId = 0;\r\n\r\n    constructor() ERC1155(\"https://myapi/token/{id}.json\") { \r\n        authorizer = _msgSender();\r\n    }\r\n\r\nfunction mint(uint256 CCT, \r\n              string memory projectName,\r\n              uint256 startDate,\r\n              uint256 endDate,\r\n              string memory ipfsHash) public {\r\n    require(CCT > 0, \"Quantidade de tokens deve ser maior que zero\");\r\n    require(startDate < endDate, \"Datas inicio deve ser menor que a de termino\");\r\n    require(bytes(projectName).length > 0, \"Nome do projeto nao pode ser vazio\");\r\n    require(bytes(ipfsHash).length > 0, \"Hash IPFS nao pode ser vazio\");\r\n    require(startDate != 0 && endDate != 0, \"informe date de inicio e termino\");\r\n    lastMintedTokenId = lastMintedTokenId + 1;\r\n    tokenIdCounter.increment();\r\n    uint256 tokenId = tokenIdCounter.current();        \r\n    mintedTokenAccounts[tokenId] = msg.sender;\r\n    mintedTokenAmounts[tokenId] = CCT;\r\n    mintedTokenProjectNames[tokenId] = projectName;\r\n    mintedTokenStartDates[tokenId] = startDate;\r\n    mintedTokenEndDates[tokenId] = endDate;\r\n    mintedTokenIPFSHashes[tokenId] = ipfsHash;      \r\n\r\n    _mint(msg.sender, tokenId, CCT, \"\");\r\n   // Adiciona logs para debug\r\n    emit MintEvent(\r\n        tokenId,\r\n        msg.sender,\r\n        CCT,\r\n        projectName,\r\n        startDate,\r\n        endDate,\r\n        ipfsHash\r\n    );\r\n}\r\n\r\n    // Adicione esse evento no seu contrato\r\n    event MintEvent(\r\n        uint256 indexed tokenId,\r\n        address indexed account,\r\n        uint256 amount,\r\n        string projectName,\r\n        uint256 startDate,\r\n        uint256 endDate,\r\n        string ipfsHash\r\n    );\r\n\r\n    function getLastMintedTokenId() public view returns (uint256) {\r\n        return lastMintedTokenId;\r\n    }\r\n \r\n    function getLastMintedTokenDetails() public view returns (address account, uint256 CCT, uint256 tokenId) {\r\n        require(lastMintedTokenId > 0, \"No tokens minted yet\");\r\n        return (mintedTokenAccounts[lastMintedTokenId], mintedTokenAmounts[lastMintedTokenId], lastMintedTokenId);  \r\n    }\r\n\r\n    function setShares(uint256 _operatorSharePercentage, uint256 _ownerSharePercentage) public onlyOwner {\r\n        require(_operatorSharePercentage + _ownerSharePercentage <= 100, \"Invalid shares\");\r\n        operatorSharePercentage = _operatorSharePercentage;\r\n        ownerSharePercentage = _ownerSharePercentage;\r\n    }\r\n\r\n    function getMinterOfToken(uint256 tokenId) public view returns (address) {\r\n        return mintedTokenAccounts[tokenId];\r\n    }  \r\n\r\n    function setApprovalForAll(address operator, bool approved) public override{\r\n        super._setApprovalForAll(authorizer,operator, approved );\r\n    }\r\n\r\n      //remover depois\r\n    function executeSetApprovalForAll() public {\r\n    setApprovalForAll(msg.sender, true);\r\n    }\r\n\r\n   /* function approveOperator(address operator) public onlyOwner {\r\n    setApprovalForAll(operator, true);\r\n    }*/ \r\n    // A funo retorna as informaes do Token criado usando o tokenID 17/09/2023\r\n    function getMintedTokenInfo(uint256 tokenId) public view returns (\r\n        uint256 CCT,\r\n        string memory projectName,\r\n        uint256 startDate,\r\n        uint256 endDate,\r\n        string memory ipfsHash,\r\n        address creatorContract\r\n    )    {\r\n        require(tokenId <= lastMintedTokenId && tokenId > 0, \"Invalid token ID\");    \r\n        CCT = mintedTokenAmounts[tokenId];\r\n        projectName = mintedTokenProjectNames[tokenId];\r\n        startDate = mintedTokenStartDates[tokenId];\r\n        endDate = mintedTokenEndDates[tokenId];\r\n        ipfsHash = mintedTokenIPFSHashes[tokenId];\r\n        creatorContract = mintedTokenAccounts[tokenId];\r\n    }\r\n\r\n    //retorna vrias matrizes contendo informaes sobre todos os tokens criados. 17/09/2023\r\n    function getMintedTokenInfoAll() public view returns (\r\n            uint256[] memory tokenIds,\r\n            uint256[] memory CCTs,\r\n            string[] memory projectNames,\r\n            uint256[] memory startDates,\r\n            uint256[] memory endDates,\r\n            string[] memory ipfsHashes,\r\n            address[] memory creatorContracts\r\n        ) {\r\n            tokenIds = new uint256[](lastMintedTokenId);\r\n            CCTs = new uint256[](lastMintedTokenId);\r\n            projectNames = new string[](lastMintedTokenId);\r\n            startDates = new uint256[](lastMintedTokenId);\r\n            endDates = new uint256[](lastMintedTokenId);\r\n            ipfsHashes = new string[](lastMintedTokenId);\r\n            creatorContracts = new address[](lastMintedTokenId);\r\n\r\n            for (uint256 i = 1; i <= lastMintedTokenId; i++) {\r\n                tokenIds[i - 1] = i;\r\n                CCTs[i - 1] = mintedTokenAmounts[i];\r\n                projectNames[i - 1] = mintedTokenProjectNames[i];\r\n                startDates[i - 1] = mintedTokenStartDates[i];\r\n                endDates[i - 1] = mintedTokenEndDates[i];\r\n                ipfsHashes[i - 1] = mintedTokenIPFSHashes[i];\r\n                creatorContracts[i - 1] = mintedTokenAccounts[i];\r\n            }\r\n        }    \r\n\r\n    function safeTransferFrom(\r\n        address from,\r\n        address to,\r\n        uint256 id,\r\n        uint256 amount,\r\n        bytes memory data\r\n    ) public virtual override {\r\n        require(\r\n           owner() != to,\r\n            \"ERC1155: caller is not token owner or approved\"\r\n        );\r\n        super._safeTransferFrom(from, to, id, amount, data);\r\n    }\r\n\r\n    function buyTokens(uint256 tokenId, uint256 amount) public payable {\r\n     require(mintedTokenAmounts[tokenId] >= amount, \"Insufficient balance\");\r\n    \r\n     uint256 price = amount * 1 ether;\r\n     uint256 operatorCommission = price * operatorSharePercentage / 100;\r\n     uint256 ownerCommission = price * ownerSharePercentage / 100;\r\n     //uint256 sellerShare = price - operatorShare - ownerShare;\r\n\r\n     require(msg.value >= price, \"Insufficient payment\");\r\n    \r\n     mintedTokenAmounts[tokenId] -= amount;\r\n    \r\n     //liberar a aprovao \r\n     setApprovalForAll(msg.sender,true);\r\n\r\n     address tokenOwner = mintedTokenAccounts[tokenId]; // Get the current token owner\r\n     emit TransferSingle(tokenOwner, address(0), msg.sender, tokenId, amount); // Emit TransferSingle event\r\n\r\n    // Transfer tokens from tokenOwner to the buyer\r\n     safeTransferFrom(tokenOwner, msg.sender, tokenId, amount, \"\");\r\n\r\n    // Transfer Ether to the tokenOwner\r\n    // payable(tokenOwner).transfer(price); //para receber 100% sem comissa.\r\n     payable(owner()).transfer(ownerCommission);\r\n     payable(tokenOwner).transfer(operatorCommission);\r\n    }\r\n\r\n    function getMintedTokenInfoByContract(address contractAddress) public view returns (\r\n        uint256[] memory tokenIds,\r\n        uint256[] memory CCTs,\r\n        string[] memory projectNames,\r\n        uint256[] memory startDates,\r\n        uint256[] memory endDates,\r\n        string[] memory ipfsHashes,\r\n        address[] memory creatorContracts\r\n    ) {\r\n        uint256[] memory matchingTokenIds = new uint256[](lastMintedTokenId);\r\n        uint256 matchCount = 0;\r\n\r\n        for (uint256 i = 1; i <= lastMintedTokenId; i++) {\r\n            if (mintedTokenAccounts[i] == contractAddress) {\r\n                matchingTokenIds[matchCount] = i;\r\n                matchCount++;\r\n            }\r\n        }\r\n\r\n        tokenIds = new uint256[](matchCount);\r\n        CCTs = new uint256[](matchCount);\r\n        projectNames = new string[](matchCount);\r\n        startDates = new uint256[](matchCount);\r\n        endDates = new uint256[](matchCount);\r\n        ipfsHashes = new string[](matchCount);\r\n        creatorContracts = new address[](matchCount);\r\n\r\n        for (uint256 j = 0; j < matchCount; j++) {\r\n            uint256 tokenId = matchingTokenIds[j];\r\n            tokenIds[j] = tokenId;\r\n            CCTs[j] = mintedTokenAmounts[tokenId];\r\n            projectNames[j] = mintedTokenProjectNames[tokenId];\r\n            startDates[j] = mintedTokenStartDates[tokenId];\r\n            endDates[j] = mintedTokenEndDates[tokenId];\r\n            ipfsHashes[j] = mintedTokenIPFSHashes[tokenId];\r\n            creatorContracts[j] = mintedTokenAccounts[tokenId];\r\n        }\r\n    }\r\n  \r\n\r\n    \r\n}\r\n\r\n\r\n\r\n",
  "sourcePath": "C:\\Users\\marcioo\\Documents\\Projetos\\outros\\node\\Blockchain\\cctv3\\contracts\\SmartTokens.sol",
  "compiler": {
    "name": "solc",
    "version": "0.8.9+commit.e5eed63a.Emscripten.clang"
  },
  "schemaVersion": "3.4.11",
  "updatedAt": "2023-12-27T23:22:02.616Z",
  "networkType": "ethereum",
  "devdoc": {
    "kind": "dev",
    "methods": {
      "balanceOf(address,uint256)": {
        "details": "See {IERC1155-balanceOf}. Requirements: - `account` cannot be the zero address."
      },
      "balanceOfBatch(address[],uint256[])": {
        "details": "See {IERC1155-balanceOfBatch}. Requirements: - `accounts` and `ids` must have the same length."
      },
      "isApprovedForAll(address,address)": {
        "details": "See {IERC1155-isApprovedForAll}."
      },
      "owner()": {
        "details": "Returns the address of the current owner."
      },
      "renounceOwnership()": {
        "details": "Leaves the contract without owner. It will not be possible to call `onlyOwner` functions. Can only be called by the current owner. NOTE: Renouncing ownership will leave the contract without an owner, thereby disabling any functionality that is only available to the owner."
      },
      "safeBatchTransferFrom(address,address,uint256[],uint256[],bytes)": {
        "details": "See {IERC1155-safeBatchTransferFrom}."
      },
      "safeTransferFrom(address,address,uint256,uint256,bytes)": {
        "details": "See {IERC1155-safeTransferFrom}."
      },
      "setApprovalForAll(address,bool)": {
        "details": "See {IERC1155-setApprovalForAll}."
      },
      "supportsInterface(bytes4)": {
        "details": "See {IERC165-supportsInterface}."
      },
      "transferOwnership(address)": {
        "details": "Transfers ownership of the contract to a new account (`newOwner`). Can only be called by the current owner."
      },
      "uri(uint256)": {
        "details": "See {IERC1155MetadataURI-uri}. This implementation returns the same URI for *all* token types. It relies on the token type ID substitution mechanism https://eips.ethereum.org/EIPS/eip-1155#metadata[defined in the EIP]. Clients calling this function must replace the `\\{id\\}` substring with the actual token type ID."
      }
    },
    "version": 1
  },
  "userdoc": {
    "kind": "user",
    "methods": {},
    "version": 1
  }
}